:100000000CEF00F0FFFFEE6AEA50E262FCD7E95025
:10001000E162F9D71200B51A03EE29F01FEE00F0E5
:1000200004EC00F000EE0DF010EE0FF004EC00F028
:1000300000EE0FF012EE58F004EC00F002EEA4F027
:1000400013EE29F0700EF66E000EF76E000EF86ECD
:100050004FEC64F000EEFEF011EE00F0160EF66EBE
:10006000000EF76E000EF86E4FEC64F072EF34F095
:1000700063112113001501191D17001708570055AA
:10008000FF410043FF4500630F3700391967CB2557
:100090004021C0230135030C0D0E0304050607089B
:1000A000090A0B000102702E6E6162617A74616749
:1000B0002E636F6D000000000000000101020303C9
:1000C0000405060708090A0C0D0F1012131517195D
:1000D0001B1D1F212325272A2C2E313336383B3E6A
:1000E000404346494C4F5154575A5D6063676A6DAF
:1000F000707376797C00AB000001AC6FAB51AD6FD3
:10010000640EAE6FAC51000ED8A4010E03EF30F0B8
:10011000BAC400F0B9C4E8FF0002F4CFF3FFF46AF8
:10012000F3BEF468F3CFABF0F4CFACF00001AB5109
:1001300067EF13F0E8CFB9F4EBD7E8CFBAF4E8D71C
:1001400000014D514E114F115011D8B402D0010E83
:100150000AD000014151421143114411D8B402D0D8
:10016000020E01D0000E120000014D514E114F1130
:100170005011D8A48EEC13F000014D6B4E6B4F6BF9
:10018000506B1200AB000001AC6FEEDF1FD911C045
:10019000B1F012C0B2F013C0B3F014C0B4F0040E4A
:1001A0000001B56F6FEC5EF000C0ADF001C0AEF0C5
:1001B00002C0AFF003C0B0F0ACC000F0016A026A48
:1001C000036A0001B051035C08E1AF51025C05E134
:1001D000AE51015C02E1AD51005CD8B0F6D0000137
:1001E000AC51D8B43BD0AC25006E016A0136026A2E
:1001F000036AAC510024046E000E0120056E000E4F
:100200000220066E000E0320076EAC510424006E1F
:10021000000E0520016E000E0620026E000E072063
:10022000036E11C0E8FF0024B16F12C0E8FF012087
:10023000B26F13C0E8FF0220B36F14C0E8FF0320C1
:10024000B46F040EB56F6FEC5EF000C04DF001C0EE
:100250004EF002C04FF003C050F005D000014D6BCE
:100260004E6B4F6B506BACC0B7F40001AC51AC257A
:10027000006E016A0136026A036AAC510024046E02
:10028000000E0120056E000E0220066E000E0320F7
:10029000076EAC510424006E000E0520016E000EA6
:1002A0000620026E000E0720036E11C0E8FF002436
:1002B000046E12C0E8FF0120056E13C0E8FF0220A3
:1002C000066E14C0E8FF0320076E040E0424B16F0D
:1002D000000E0520B26F000E0620B36F000E07203F
:1002E000B46F040EB56F6FEC5EF000C049F001C052
:1002F0004AF002C04BF003C04CF0020EADC000F05B
:10030000AEC001F0AFC002F0B0C003F041EC64F049
:1003100011C0E8FF0024046E12C0E8FF0120056E42
:1003200013C0E8FF0220066E14C0E8FF0320076E2A
:10033000040E0424006E000E0520016E000E06203F
:10034000026E000E0720036E00EE4DF00050EE2608
:100350000150EE220250EE220350ED22ED52ED52FA
:10036000020EADC000F0AEC001F0AFC002F0B0C0F0
:1003700003F041EC64F011C0E8FF0024046E12C0E9
:10038000E8FF0120056E13C0E8FF0220066E14C0CE
:10039000E8FF0320076E040E0424006E000E052003
:1003A000016E000E0620026E000E0720036E00EEA6
:1003B00049F00050EE260150EE220250EE2203508A
:1003C000ED22ED52ED527BEC13F012000001415191
:1003D000421143114411D8A46EEC14F00001416B9A
:1003E000426B436B446B1200AB000001AC6FBCDE90
:1003F000EDDF11C0B1F012C0B2F013C0B3F014C001
:10040000B4F0040E0001B56F6FEC5EF000C0ADF00B
:1004100001C0AEF002C0AFF003C0B0F0ACC000F05D
:10042000016A026A036A0001B051035C08E1AF513E
:10043000025C05E1AE51015C02E1AD51005CD8B057
:1004400016D10001AC51D8B43BD0AC25006E016A86
:100450000136026A036AAC510024046E000E0120CA
:10046000056E000E0220066E000E0320076EAC51D2
:100470000424006E000E0520016E000E0620026EA0
:10048000000E0720036E11C0E8FF0024B16F12C0F8
:10049000E8FF0120B26F13C0E8FF0220B36F14C061
:1004A000E8FF0320B46F040EB56F6FEC5EF000C080
:1004B00041F001C042F002C043F003C044F005D057
:1004C0000001416B426B436B446BACC0B4F4000160
:1004D000AC51AC25006E016A0136026A036AAC5168
:1004E0000024046E000E0120056E000E0220066E30
:1004F000000E0320076EAC510424006E000E052090
:10050000016E000E0620026E000E0720036E11C061
:10051000E8FF0024046E12C0E8FF0120056E13C03E
:10052000E8FF0220066E14C0E8FF0320076E040EE9
:100530000424B16F000E0520B26F000E0620B36FC9
:10054000000E0720B46F040EB56F6FEC5EF000C0B4
:100550003DF001C03EF002C03FF003C040F0020E8B
:10056000ADC000F0AEC001F0AFC002F0B0C003F00B
:1005700041EC64F011C0E8FF0024046E12C0E8FFF3
:100580000120056E13C0E8FF0220066E14C0E8FFCC
:100590000320076E040E0424006E000E0520016E79
:1005A000000E0620026E000E0720036E00EE41F0E2
:1005B0000050EE260150EE220250EE220350ED22B2
:1005C000ED52ED52020EADC000F0AEC001F0AFC072
:1005D00002F0B0C003F041EC64F011C0E8FF002469
:1005E000046E12C0E8FF0120056E13C0E8FF022070
:1005F000066E14C0E8FF0320076E040E0424006E8C
:10060000000E0520016E000E0620026E000E07206F
:10061000036E00EE3DF00050EE260150EE22025037
:10062000EE220350ED22ED52ED5241C000F042C0E7
:1006300001F043C002F044C003F0080E00240001A2
:10064000BF6F000E0120C06F000E0220C16F000EB0
:100650000320C26F040EC36FEEEC5DF048EC14F0A3
:100660000001100E4127000E4223432344231200B1
:1006700000014151421143114411D8A46FD09FD0C1
:1006800041C0CBF042C0CCF043C0CDF044C0CEF06E
:10069000040E0001CF6FA7EC60F000C0C5F001C0F0
:1006A000C6F0040E80EC60F000C0C7F001C0C8F0D6
:1006B00002C0C9F003C0CAF000EE40F00001CA5108
:1006C000ED5C08E1C951ED5C05E1C851ED5C02E16A
:1006D000C751EF5CD8B008D03DC0C7F03EC0C8F0ED
:1006E0003FC0C9F040C0CAF0C70EE96E000EEA6E06
:1006F00041C0E8FFEE5E42C0E8FFEE5A43C0E8FFAB
:10070000EE5A44C0E8FFED5AED52ED520401B82B09
:100710000001CA51C711C811C911D8B41FD0C7C030
:10072000CBF0C8C0CCF0C9C0CDF0CAC0CEF0C5C0B7
:10073000CFF0C6C0D0F0400ED16FD26BD36BD46B6C
:100740007FEC14F000EE41F00050EE260150EE2256
:100750000250EE220350ED22ED52ED5200EE3DF03C
:100760000001EE52EE52EE52ED50445D08E1ED50C4
:10077000435D05E1ED50425D02E1EF50415DD8B0CF
:1007800005D0D2EC14F00009D8A47AD700EE3DF0E1
:100790000001EE52EE52EE52ED50445D08E1ED5094
:1007A000435D05E1ED50425D02E1EF50415DD8A0AF
:1007B00006D0060ED7EC14F0006E00B007DE000184
:1007C0004D514E114F115011D8A46AD09AD04DC03E
:1007D000CBF04EC0CCF04FC0CDF050C0CEF0040EE8
:1007E0000001CF6FA7EC60F000C0C5F001C0C6F0FB
:1007F000040E80EC60F000C0C7F001C0C8F002C079
:10080000C9F003C0CAF000EE4CF00001CA51ED5C23
:1008100008E1C951ED5C05E1C851ED5C02E1C75149
:10082000EF5CD8B008D049C0C7F04AC0C8F04BC090
:10083000C9F04CC0CAF0C70EE96E000EEA6E4DC09A
:10084000E8FFEE5E4EC0E8FFEE5A4FC0E8FFEE5AFA
:1008500050C0E8FFED5AED52ED520401B82B0001F3
:10086000CA51C711C811C911D8B41AD0C7C0CBF02A
:10087000C8C0CCF0C9C0CDF0CAC0CEF0C5C0CFF062
:10088000C6C0D0F09FEC13F000EE4DF00050EE2605
:100890000150EE220250EE220350ED22ED52ED52B5
:1008A00000EE49F00001EE52EE52EE52ED50505D76
:1008B00008E1ED504F5D05E1ED504E5D02E1EF5076
:1008C0004D5DD8B005D0D2EC14F00009D8A47FD784
:1008D00000EE49F00001EE52EE52EE52ED50505D46
:1008E00008E1ED504F5D05E1ED504E5D02E1EF5046
:1008F0004D5DD8A006D02C0ED7EC14F0006E00A8E9
:1009000033DC12009700080E45C000F046C001F02D
:1009100047C002F048C003F041EC64F0000197C00A
:1009200098F0996B9851840FF66E9951F76E1B0EE3
:10093000F7220800F5509A6F00509A25E8CF45F04D
:10094000000E0120E8CF46F0000E0220E8CF47F06D
:10095000000E0320E8CF48F00401B52BB5C4E8FF32
:10096000030AD8A417D045C0C5F046C0C6F047C09A
:10097000C7F048C0C8F01FEC10F00401010EB62B00
:10098000B6C400F0000100C045F0466B476B486BF1
:100990000401B56B1200D96AD950020D6F0EF32411
:1009A000E96E000EF420EA6EEE6AED6AD92A0E0EA8
:1009B000D964F2D70401B56B00014D6B4E6B4F6BE0
:1009C000506B416B426B436B446B0401BA6B040187
:1009D000B96BF5EC2FF0000E006A016A026A036A37
:1009E0001200AB00D96E0E0ED96401D07DD0D95063
:1009F00002EECBF0E926000EEA22EF50D96E00019C
:100A0000AC51D8A402D0010EAC6F0001AB51F66E10
:100A1000F76AF650F76EF66AD950020D510EF324BC
:100A2000E96E000EF420EA6EEECF00F0EDCF01F09B
:100A3000F750015C02E1F650005CD8B01ED0D950EE
:100A4000020D510EF324E96E000EF420EA6EEECF93
:100A500000F0EDCF01F00050F65E0150F75AACC047
:100A600002F0036AF6CF00F0F7CF01F04AEC63F032
:100A700004C0F6FF05C0F7FF23D0D950020D510E78
:100A8000F324E96E000EF420EA6EEECF00F0EDCF15
:100A900001F0F650005CF66EF7500158F76EACC0EE
:100AA00002F0036AF6CF00F0F7CF01F04AEC63F0F2
:100AB00004C0F6FF05C0F7FFF66CF71ED8B0F72AA2
:100AC000D950020D6F0EF324E96E000EF420EA6E89
:100AD000F6CFEEFFF7CFEDFFD95004EEBBF0E926DD
:100AE000000EEA22ACC0EFFF12009900E16EE104B3
:100AF000D8A402D0030E05D0E150030AD8A402D036
:100B0000010EE16EE150E124E12600019951AB6F45
:100B10009D51AC6FE150020F65DF9AC099F09BC008
:100B20009AF09CC09BF000019C6B9951AB6F9D515A
:100B3000AC6FE12857DF9AC099F09BC09AF09CC037
:100B40009BF000019C6B9951AB6F9D51AC6FE150D4
:100B500049D70401B56B010EE8CFB6F40001486B2C
:100B6000476B466B456F0001966B0001965104EE92
:100B7000BBF0E926000EEA22EF50D8B41FD0965100
:100B800004EEBBF0E926000EEA22EF069651020DB4
:100B90006F0EF324E96E000EF420EA6EEECF00F043
:100BA000EDCF01F09651020D510EF324E96E000EC7
:100BB000F420EA6E0050EE260150ED22000196511D
:100BC000020D510EF324E96E000EF420EA6EEECF12
:100BD00000F0EDCF01F00150F66EF76AF650976F16
:100BE000965191DE0001962B0E0E9665BED712002F
:100BF000B4EC00F0E6EF01F00400CE50D96ECF5017
:100C0000D96E55D05ECAE8FFD9CF00F0016A005E08
:100C1000000E015A0150800A800F0A0ED8B4005C01
:100C20000101D8A013D0520EE827150EE923340E87
:100C3000EA23000EEB23520EE427150EE523340EB3
:100C4000E623000EE7230A010A0E12D0550EE8270C
:100C5000350EE923050EEA23000EEB23550EE4279B
:100C6000350EE523050EE623000EE7230A01010EEB
:100C70005E2701EEEBF0000EED5C08E1980EED5CF6
:100C800005E1960EED5C02E1810EEF5CD8A00FD07D
:100C90000101800EE827690EE923670EEA23FF0EA3
:100CA000EB230A0EE027000EE123E223E3235ECAD2
:100CB000E8FFD962A7D701EEE7F03B0EED5C08E153
:100CC0009A0EED5C05E1CA0EED5C02E1010EEF5CEF
:100CD000D8A00DD00101D890360EE527650EE62389
:100CE000C40EE723DC2B000EDD23DE23DF23E0C16F
:100CF00000F0E1C101F0E2C102F0E3C103F0120033
:100D00007BDFDCC100F0DDC101F0DEC102F0DFC13C
:100D100003F012000101E86BE96BEA6BEB6BE06B2F
:100D2000E16BE26BE36BE46BE56BE66BE76BDF6B50
:100D3000DE6BDD6B010EDC6FCFCF5EFA1200E96A6D
:100D4000EA6A0C6A086A096A0A6A0B6A04500510A2
:100D50000610071006E1046A056A066A076A15EFBD
:100D600064F0C00E0C1606D0D89004360536063650
:100D700007360C2A07AEF8D70C2AD8900836093661
:100D80000A360B360750035C08E10650025C05E1A9
:100D90000550015C02E10450005C09E30880045046
:100DA000005E0550015A0650025A0750035AD89067
:100DB00007320632053204320C060C503F0BDDE1DF
:100DC0000CBC56EC64F00050046E0150056E0250ED
:100DD000066E0350076E0850006E0950016E0A50EF
:100DE000026E0B50036E0CAE19EF64F056EC64F01B
:100DF00019EF64F0D9000001DBC0F6FFDCC0F7FF9B
:100E0000DB2B000EDC230E0EF76403D00800F55038
:100E100005D0F6CFE9FFF7CFEAFFEF50016ED9C05A
:100E2000F6FFDAC0F7FF0E0EF76403D00800F550A6
:100E300005D0F6CFE9FFF7CFEAFFEF50006E015083
:100E4000005CD96ED950D8A415D0D9C0F6FFDAC04D
:100E5000F7FFD92B000EDA230E0EF76403D008003B
:100E6000F55005D0F6CFE9FFF7CFEAFFEF500009C4
:100E7000D8A4C1D7D9CF00F0016A00BE0106120084
:100E8000A200A4C0F3FFA5C0F4FFA2C0D9FFA3C075
:100E9000DAFF0001A651006EA751016EA607000EF1
:100EA000A75B01500010D8B41AD0F3CFF6FFF4CFEF
:100EB000F7FFF32A000EF422D9CFE9FFDACFEAFFD9
:100EC000D94ADA2A0E0EF76403D00800F55005D08F
:100ED000F6CFE1FFF7CFE2FFE750EF6EDAD7A2C01F
:100EE00000F0A3C001F01200046E042A0406D8B476
:100EF000000CD8900332023201320032F7D7FFFFE4
:100F00004D546864000000060000000101E04D54EB
:100F1000726B000000C000FF510307A12000C079E0
:100F20001E9058762F8058000D90596E35805900CC
:100F300007905A6727805A0015905B793B805B00C9
:100F400001905C6E26805C0016905D642C805D00D4
:100F500010905E6E1C805E0020905F7D3C607D0383
:100F6000805F002D60000C90616228806100149009
:100F700062703C636C0080620023630019906479A6
:100F80002C806400109065682D8065000F90666E5F
:100F900027806600159067733C6870058067001EA7
:100FA00068001990696E2B80690011906A6C1E8030
:100FB0006A001E906B702D806B000F906C6C2C8003
:100FC0006C0010906D671E806D001E906E733980EE
:100FD0006E0000FF2F004D54686400000006000002
:100FE000000101E04D54726B0000005D00FF5103F1
:100FF00010594300C0090290585A12486231606289
:101000000A8058782C90585212806054439060495E
:101010000480586C339058450580606A8100906068
:10102000402280586F7A905D58038048490460528E
:101030000B904F488424805D4D114F76813A90305B
:10104000017480304000FF2F00776570006E616290
:10105000617A746167004164486F630041500057D2
:101060004C414E003F003C2F74643E3C2F74723E56
:10107000003C74723E3C74643E003C2F74643E3C01
:1010800074643E00223E4A6F696E3C2F613E003C14
:101090006120687265663D22622E68746D3F6B3D0B
:1010A00000266E6273703B003C2F74643E3C746497
:1010B0003E2D00570D0A00485454502F312E302039
:1010C000323030204F4B0D0A436F6E74656E742DB5
:1010D000547970653A20746578742F68746D6C0D5E
:1010E0000A0D0A00474554202F00676574202F0021
:1010F0003C68746D6C3E3C686561643E3C74697428
:101100006C653E4E6162617A746167204D616E75F7
:10111000616C20436F6E66696775726174696F6E8A
:101120003C2F7469746C653E0A3C7374796C65205D
:10113000747970653D22746578742F637373223EF1
:101140000A3C212D2D0A613A6C696E6B2C20613AA4
:10115000766973697465642C20613A616374697699
:10116000657B0A09666F6E742D66616D696C793AEC
:1011700056657264616E612C20417269616C2C202D
:1011800048656C7665746963612C2073616E732D9C
:1011900073657269663B200A09636F6C6F723A234C
:1011A0006666643064303B0A09746578742D646542
:1011B000636F726174696F6E203A20756E64657238
:1011C0006C696E653B0A7D0A424F44592C20544499
:1011D0002C20502C20494E50555420207B0A096663
:1011E0006F6E742D66616D696C79203A2056657258
:1011F00064616E612C20417269616C2C2047656EC0
:101200006576612C2053616E732D53657269663B60
:101210000A09666F6E742D73697A65203A2031323F
:1012200070783B0A7D0A2D2D3E3C2F7374796C65D6
:101230003E0A3C2F686561643E3C626F64792062BF
:1012400067636F6C6F723D4343333336362074658A
:1012500078743D4646464646463E3C48323E4E61E0
:1012600062617A746167204D616E75616C20436FB5
:101270006E66696775726174696F6E20322E3062B6
:101280003C2F48323E0A003C2F626F64793E3C2F6F
:1012900068746D6C3E0050726F787920706F727454
:1012A000202F20506F72742064752070726F7879CF
:1012B0000050726F7879204950202F204164726568
:1012C0007373652049502064752070726F787900BF
:1012D00050726F787920736572766572202F205373
:1012E0006572766575722050726F7879004C6F6305
:1012F000616C206D61736B202F204D61737175657A
:1013000020646520736F75732D72E97365617500D4
:101310004C6F63616C2067617465776179202F2061
:10132000506173736572656C6C65207061722064C6
:10133000E9666175740056696F6C657420506C6164
:1013400074666F726D202F20506C617465666F72C9
:101350006D652056696F6C65740047656E657261D6
:101360006C20496E666F202F20496E666F726D612A
:1013700074696F6E732067E96EE972616C65730062
:10138000496E7465726E657420636F6E6E6563740A
:10139000696F6E202F204574617420646520766F1C
:1013A00074726520636F6E6E6578696F6E0041754B
:1013B0007468656E7469636174696F6E202F204173
:1013C000757468656E74696669636174696F6E00CF
:1013D00053534944202F204E6F6D20646520766F53
:1013E0007472652072266561637574653B7365610F
:1013F000752073616E732066696C00576966692099
:10140000706172616D6574657273202F20566F7400
:1014100072652072E97365617520776966690053AA
:10142000657269616C20657874656E73696F6E2092
:101430002F20457874656E73696F6E206475206E19
:10144000756D266561637574653B726F20646520F8
:1014500073266561637574653B72696500536572D7
:1014600069616C206E756D626572202F204E756DFE
:10147000266561637574653B726F20646520732611
:101480006561637574653B726965002073656C65A1
:101490006374656400446E732073657276657220B0
:1014A0002F205365727665757220646520444E5313
:1014B000004C6F63616C204950202F20416472659D
:1014C00073736520495000574550206B6579202F74
:1014D00020436C65662072E973656175205745503D
:1014E00000487474702070726F787920656E616244
:1014F0006C6564203F202F205365727665757220DD
:1015000070726F7879203F0057455020656E637286
:10151000797074696F6E203F202F2052E9736561E6
:10152000752073E96375726973E920656E2057450C
:1015300050203F004448435020656E61626C6564F2
:10154000203F202F20566F7573207574696C697366
:10155000657A20756E2073657276657572204448D1
:101560004350203F003C696E70757420747970653B
:101570003D7375626D69742076616C75653D2255A9
:101580007064617465202F204D657474726520E06D
:10159000206A6F757222206E616D653D793E266E00
:1015A0006273703B266E6273703B3C696E7075743B
:1015B00020747970653D7375626D69742076616C15
:1015C00075653D2255706461746520616E64207399
:1015D00074617274202F204D657474726520E02050
:1015E0006A6F75722065742044E96D61727265726C
:1015F00022206E616D653D7A3E003E5368617265E2
:10160000644B6579202F20506172746167E93C2F2B
:101610006F7074696F6E3E3C2F73656C6563743ECA
:10162000003C74723E3C74643E535349443C2F74F6
:10163000643E3C74643E4368616E6E656C3C2F741E
:10164000643E3C74643E53656E736962696C697490
:10165000793C2F74643E3C74643E547970653C2F31
:1016600074643E3C74643E456E6372797074696F55
:101670006E3C2F74643E3C74643E266E6273703B15
:101680003C2F74643E3C2F74723E004572726F7240
:10169000202F204572726575723C62723E3C627208
:1016A0003E00446F6E65202F204F6B3C62723E3CC3
:1016B00062723E00596F7520617265206E6F7720EF
:1016C000636F6E6E656374656420746F20796F75E7
:1016D00072204E6162617A7461672E3C62723E458F
:1016E0006E7465722074686520696E666F726D61D4
:1016F00074696F6E206E656564656420616E642038
:10170000636C69636B206F6E205570646174652033
:10171000616E64205374617274203A20796F75721F
:10172000204E6162617A7461672077696C6C207207
:1017300065737461727420776974682074686520B9
:101740006E65772073657474696E67732E203C62D2
:10175000723E3C62723E566F757320EA7465732068
:101760006D61696E74656E616E7420636F6E6E6517
:101770006374E920E020766F747265204E616261C7
:101780007A7461672E3C62723E20556E6520666FEA
:101790006973206C657320696E666F726D61746920
:1017A0006F6E7320656E7472E9657320636C697186
:1017B00075657A2073757220224D65747472652088
:1017C000E0206A6F75722065742044E96D61727261
:1017D00065722220657420766F747265204E616296
:1017E000617A74616720736520636F6E6E656374E0
:1017F0006572612061766563206C6573206E6F751C
:10180000766561757820706172616DE874726573D8
:101810002E3C62723E3C62723E0053746172746987
:101820006E672E2E2E202F2044E96D617272616743
:101830006520656E20636F7572732E2E2E3C62726A
:101840003E3C62723E003E4E6F202F204E6F6E3C3B
:101850002F6F7074696F6E3E003E596573202F20A4
:101860004F75693C2F6F7074696F6E3E003C2F742A
:1018700061626C653E3C2F666F726D3E003C693E56
:101880004966206E6F2C20796F75206D75737420FA
:1018900066696C6C206F75742074686520666F7261
:1018A0006D2062656C6F772E3C62723E4120636FE3
:1018B0006D706CE974657220756E697175656D6522
:1018C0006E7420736920766F7573206E27EA7465D5
:1018D000732070617320656E2044484350203A3C69
:1018E0002F693E003C693E4B65792073796E7461C7
:1018F000782069732068657861646563696D616CDF
:1019000020283130206F7220323620636861727374
:1019100029206F72206173636969202835206F72F6
:10192000203133206368617273293C62723E4C61DE
:1019300020636C6566205765702065737420756E32
:1019400065207375697465206465206361726163E5
:1019500074E8726573206865786164E963696D6134
:10196000757820283130206F7520323620636172FF
:10197000616374E872657329206F75206465206C5B
:10198000657474726573202835206F75203133209B
:101990006C657474726573293C2F693E003C2F742A
:1019A00061626C653E003C74723E3C74643E002093
:1019B0003A203C2F74643E3C74643E003C612068D5
:1019C0007265663D22612E68746D223E436F6E74AF
:1019D000696E7565202F20436F6E74696E75657230
:1019E0003C2F613E003C6120687265663D22642E9A
:1019F00068746D223E3C62723E5363616E2057698B
:101A00006669206E6574776F726B73202F20416654
:101A1000666963686572206C61206C697374652007
:101A20006465732072E973656175782073616E7304
:101A30002066696C3C2F613E003C74723E3C7464CD
:101A400020636F6C7370616E3D323E3C48333E00E4
:101A50003C74723E3C746420636F6C7370616E3DC5
:101A6000323E003C7461626C6520626F7264657224
:101A70003D312077696474683D3630303E00223E47
:101A800000203E003C696E70757420747970653D6D
:101A900074657874206E616D653D003C73656C659E
:101AA0006374206E616D653D002671756F743B0037
:101AB000266C743B00266E6273703B003A003C6FEC
:101AC0007074696F6E2076616C75653D32003E4FB3
:101AD00070656E53797374656D202F204F75766530
:101AE00072743C2F6F7074696F6E3E3C6F707469D6
:101AF0006F6E2076616C75653D31003C73656C6579
:101B00006374206E616D653D6C3E3C6F7074696FEF
:101B10006E2076616C75653D30002E0028442900EA
:101B20002076616C75653D22003C2F48333E3C2F8A
:101B300074643E3C2F74723E0A003C666F726D20E6
:101B40006D6574686F643D474554206E616D653DF9
:101B5000666F726D20616374696F6E3D22622E68DC
:101B6000746D223E3C7461626C6520626F726465C4
:101B7000723D302063656C6C70616464696E673DB2
:101B8000323E0A00000000000000000000000000DB
:101B90000000000000000000000000000000010143
:101BA000010101010101010101020202020202021E
:101BB00002030303030303040404040404040505EB
:101BC00005050506060606060707070707080808AD
:101BD00008090909090A0A0A0A0B0B0B0B0C0C0C61
:101BE0000D0D0D0D0E0E0E0F0F0F10101010111108
:101BF00011121212131313141415151516161617A5
:101C0000171818181919191A1A1B1B1C1C1C1D1D32
:101C10001E1E1F1F1F2020212122222323242424B3
:101C2000252526262727282829292A2A2B2B2C2C2C
:101C30002D2E2E2F2F303031313232333434353592
:101C4000363637383839393A3B3B3C3C3D3E3E3FEF
:101C5000404041414243434445454647474849493E
:101C60004A4B4B4C4D4D4E4F4F5051525253545482
:101C70005556575758595A5A5B5C5D5D5E5F6060B8
:101C800061626364474554200020485454502F310A
:101C90002E300D0A557365722D4167656E743A20BA
:101CA00056494F4C45540D0A507261676D613A2098
:101CB0006E6F2D63616368650D0A0D0A002F766CE7
:101CC0002F46522F70002E6A73703F002665783DB4
:101CD0000026763D32302673743D002674733D0035
:101CE00026746E3D00736E3D002673643D002674BD
:101CF000633D003A003300687474703A2F2F0094EB
:101D00007900947900947900947900947900947919
:101D10000094790094790094790094790094790082
:101D2000947900947900947900947900947900B6BC
:101D30007900B67900B67900B67900B67900B6793F
:101D400000B67900B67900B67900B67900B67900A8
:101D5000B67900B67900B67900B67900B67900E2B6
:101D60007900E27900E27900E27900E27900E27933
:101D700000E27900E27900E27900E27900E279009C
:101D8000E27900E27900E27900E27900E27900008C
:101D90007A00007A00007A00007A00007A00007A67
:101DA00000007A00007A00007A00007A00007A00D1
:101DB000007A00007A00007A00007A00007A001EA3
:101DC0007A001E7A001E7A001E7A001E7A001E7AA1
:101DD000001E7A001E7A001E7A001E7A001E7A000B
:101DE0001E7A001E7A001E7A001E7A001E7A003CBF
:101DF0007A003C7A003C7A003C7A003C7A003C7ADB
:101E0000003C7A003C7A003C7A003C7A003C7A0044
:101E10003C7A003C7A003C7A003C7A003C7A0058DC
:101E20007A00587A00587A00587A00587A00587A1E
:101E300000587A00587A00587A00587A00587A0088
:101E4000587A00587A00587A00587A00587A007800
:101E50007A007C7A00947A00E07A00E87A00F27ADC
:101E600000547B00DE7B00367C00CA7C006E7D0067
:101E7000A07D00C27D00E27D00027E00127E002671
:101E80007E00427E005E7E00787E00AC7E00E27EB8
:101E900000F27E00247F00567F008A7F00DC7F00F6
:101EA000108000448000788000B480001C81005ABB
:101EB0008100D28100608200968200CE8200F08292
:101EC00000248300628300B48300608400F88400EF
:101ED000388500868500888500A08500BA8500D2F7
:101EE0008500F485001686002E86004686005A86F8
:101EF00000728600868600F686008887009087003C
:101F00004288000C89005089009A8900D28900F625
:101F10008900FC8900208A00268A00348A007C8A95
:101F2000008A8A00AA8A00CA8A00D88A00188B0010
:101F3000CC8B00DA8C00748D00D68D00808E0086EC
:101F40008E00B08E00D48E001A8F003A8F00728FF0
:101F500000968F005E900000E16E040ED96EFA0EBE
:101F6000E8CF34F3030100F000F000F0342FB3EFBA
:101F70000FF00400D92EF3D7E12EEFD712009EA860
:101F8000FED7AD6E12009200000192C0F6FF93C022
:101F9000F7FF922B000E93230E0EF76403D0080078
:101FA000F55005D0F6CFE9FFF7CFEAFFEF50D96E35
:101FB000D950D8B403D0D950E2DFE6D71200D96E99
:101FC0000F0ED916090ED96402D0370E01D0300E8B
:101FD000006ED9500024D3D7E16EE1380F0BEFDF4C
:101FE000E150EDD7E1000001E451F6DF0001E351DB
:101FF000F3DF0001E251F0DF0001E151EDD79B0E6C
:10200000AF6E040EAC6E900EAB6EAC8A1200809A6E
:10201000819AFF0EEFD9FF0EEDD9818A819A808ACD
:10202000819A0001926B000EE5D90001922B0D0EF2
:102030009265F9D7818A819AD8801200C500000183
:10204000C8510F0BD96E086A096AC7510A6EC85188
:102050000B6E080EC5C000F0C6C001F0C7C002F08C
:10206000C8C003F074EC07F000500824CA6F000EDB
:102070000920CB6F000E0A20CC6F000E0B20CD6F15
:10208000080EC5C000F0C6C001F0C7C002F0C8C04D
:1020900003F041EC64F0046A0150056E066A076AB9
:1020A0000450CA25C56F0550CB21C66F0650CC2100
:1020B000C76F0750CD21C86FD904D8A446D00301FB
:1020C000070E69170E0EC5C000F0C6C001F0C7C0EC
:1020D00002F0C8C003F074EC07F000500001CA6FB2
:1020E000010ECA170F0EC5C000F0C6C001F0C7C070
:1020F00002F0C8C003F074EC07F0FE0E0016CA51DF
:102100000024E8CF67F3C5C0CAF0050E006ED89072
:10211000CA33002EFCD7030ECA17060EC5C000F046
:10212000C6C001F0C7C002F0C8C003F074EC07F0ED
:10213000FC0E0016CA510024E8CF68F3C539E84206
:10214000F80BF80B030169133FD1D950020AD8A448
:1021500058D00301F80E691703013F0E6C17140ED7
:10216000C5C000F0C6C001F0C7C002F0C8C003F08F
:1021700074EC07F00050070B030169130B0EC5C088
:1021800000F0C6C001F0C7C002F0C8C003F074EC94
:1021900007F000500001CA6F0F0ECA170C0EC5C021
:1021A00000F0C6C001F0C7C002F0C8C003F074EC74
:1021B00007F0F00E0016CA510024E8CF6AF3C5C03C
:1021C000CAF0020E006ED890CA33002EFCD71F0E44
:1021D000CA17030EC5C000F0C6C001F0C7C002F0A8
:1021E000C8C003F074EC07F0E00E0016CA510024DA
:1021F000E8CF6BF3C541E842C00BC00B03016C1381
:10220000E3D0D950030AD8A431D00301C00E6C1713
:102210000301010E6E17110EC5C000F0C6C001F01B
:10222000C7C002F0C8C003F074EC07F000503F0BC9
:1022300003016C13C6C0CAF000017F0ECA17090E55
:10224000C5C000F0C6C001F0C7C002F0C8C003F0AE
:1022500074EC07F0800E0016CA510024E8CF6DF32D
:10226000C551C525FE0B03016E13AED0D950040A2B
:10227000D8A453D003016E9103010F0E7117160EEF
:10228000C5C000F0C6C001F0C7C002F0C8C003F06E
:1022900074EC07F00050010B03016E130D0EC5C066
:1022A00000F0C6C001F0C7C002F0C8C003F074EC73
:1022B00007F000500001CA6F030ECA170E0EC5C00A
:1022C00000F0C6C001F0C7C002F0C8C003F074EC53
:1022D00007F0FC0E0016CA510024E8CF6FF3C5C00A
:1022E000CAF0CA3B0F0ECA17070ECA17050EC5C0A3
:1022F00000F0C6C001F0C7C002F0C8C003F074EC23
:1023000007F0F80E0016CA510024E8CF70F3C53963
:10231000F00BF00B0301711357D0D950050AD8A464
:1023200053D00301F00E7117130EC5C000F0C6C0E4
:1023300001F0C7C002F0C8C003F074EC07F0005011
:102340000F0B030171130A0EC5C000F0C6C001F0E7
:10235000C7C002F0C8C003F074EC07F000500001E1
:10236000CA6F1F0ECA170B0EC5C000F0C6C001F021
:10237000C7C002F0C8C003F074EC07F0E00E00160E
:10238000CA510024E8CF72F3C5C0CAF0010E006E36
:10239000D890CA33002EFCD73F0ECA17020EC5C014
:1023A00000F0C6C001F0C7C002F0C8C003F074EC72
:1023B00007F0C00E0016CA510024E8CF73F3C541E0
:1023C000800B800BE8CF74F3808A819A0001C96B7F
:1023D0000001C95103EE67F0E926000EEA22EF5032
:1023E00009D80001C92B0D0EC965F2D7818A819ADF
:1023F000D8801200C96EC6AE02D0FF0E03D0C7A0AF
:10240000FED7000E1200C96AC7A0FED7C95012003D
:10241000C90081B203D0FCEC05F0FBD7C79ED96A96
:102420008198820EE7DFCDC000F0CEC001F0070E2C
:10243000026ED89001320032022EFBD70050DADF54
:102440000001D051006E016AD890CD35026EFC0EAD
:10245000021600500224CEDF0001CF51CBDF000175
:10246000D890CC33CB33C9C0E1FFCAC0E2FFCBC0A8
:10247000F3FFCCC0F4FFF350006EF450016EF3068E
:10248000000EF45A01500010D8B40BD0E750D926F2
:10249000E1CFE9FFE2CFEAFFE14AE22AEF50AADF0B
:1024A000EAD7D950FF08A6DFD96ACBC0F3FFCCC06A
:1024B000F4FFF350006EF450016EF306000EF45A70
:1024C00001500010D8B40BD0E750D926E1CFE9FF76
:1024D000E2CFEAFFE14AE22AEF508CDFEAD7D95097
:1024E000FF0888DF8188C78E000CD8000A0E000123
:1024F000E06F52D0FCEC05F081A2FCD7D96AC79EF0
:102500008198E80E77DFDCC000F0DDC001F0070E37
:10251000026ED89001320032022EFBD700506ADFE3
:102520000001DF51006E016AD890DC35026EFC0EAE
:102530000216005002245EDF0001DE515BDF63DF24
:1025400062DF61DF60DF0001DCA107D0E16A5BDFF1
:10255000E12AE150D8A4FBD756DFE16A54DFF36EDD
:10256000D8C0E9FFD9C0EAFFF3CFEFFF0001D84B95
:10257000D92BE12AF350D926E150D8A4EFD743DF75
:10258000D9268188C78ED928D8A402D0000E27D09A
:102590000001D890D907E0070001E051D8A4ACD7DA
:1025A0000001DC51E16FDD51E26FE36BE46B1BDD99
:1025B000250EE5DC0001DA6BDB6B0001DA51D82572
:1025C000E96EDB51D921EA6EEF6ADA4BDB2B010EA3
:1025D000DB5D000ED8B4DA5DD8A0EFD7010E120093
:1025E000D96E0C0EBD6ECA94D950CB6E9494CA8429
:1025F0001200920092C000F093C001F0060ED89035
:1026000000360136E82EFBD700C094F001C095F0EB
:1026100000019551BE6E94C001F0020E006ED8907C
:102620000132002EFCD7300E0116BDCF00F0CF0EC8
:10263000001601500010BD6E12008D008094210E16
:10264000D9DE00018D51D6DE80848094230ED2DE47
:1026500000018E51CFDE80841200F36A8094F35023
:1026600002EEA5F0E926000EEA22EF50C3DEF35099
:1026700002EEA6F0E926000EEA22EF50BBDE8084CF
:10268000F350100AD8A402D0020E66DCF350140AEC
:10269000D8A402D0280E60DC020EF326250EF364C7
:1026A000DDD703013A6B03013B6B12008094450EAA
:1026B000A1DE03013B53D8B406D003013A53D8B48A
:1026C00002D0010E01D0000E95DE80841200D96E7A
:1026D0008094630E8FDED950FF08006E00380F0B18
:1026E00089DE80848094390E85DE050E83DE808449
:1026F000D9CF3BF3DBD7010EE8CF3AF3D7DF809495
:10270000310E78DE010E76DE80840A0E25DC8094A0
:10271000290E70DE020E6EDE8084120003013A6B19
:10272000C5DF8094310E66DE000E64DE8084809406
:10273000290E60DE000E5EDE80841200CB00CFC06A
:10274000E1FFD0C0E2FF0001000ECE5D08E1000E07
:10275000CD5D05E1000ECC5D02E1410ECB5DD8A060
:1027600005D0400ECB6FCC6BCD6BCE6B8094290E19
:1027700041DE000E3FDE80848094030E3BDE006A63
:10278000016A026A036A0001CE51035C08E1CD517F
:10279000025C05E1CC51015C02E1CB51005CD8B098
:1027A0000ED0E1CFE9FFE2CFEAFFE14AE22AEF50A3
:1027B00021DE002A000E012202220322E4D78084B7
:1027C0008094290E17DE020E15DE8084CBC000F047
:1027D000CCC001F0CDC002F0CEC003F01200A400C6
:1027E0000001000EA75D08E1000EA65D05E1000EE8
:1027F000A55D02E1410EA45DD8A005D0400EA46FF6
:10280000A56BA66BA76B8094290EF4DD000EF2DD9C
:1028100080848094030EEEDD006A016A026A036A16
:102820000001A751035C08E1A651025C05E1A55136
:10283000015C02E1A451005CD8B01AD00001A8C02C
:10284000F6FFA9C0F7FFA82B000EA9230E0EF76410
:1028500003D00800F55005D0F6CFE9FFF7CFEAFF27
:10286000EF50C8DD002A000E012202220322D8D731
:1028700080848094290EBEDD020EBCDD8084A4C05D
:1028800000F0A5C001F0A6C002F0A7C003F012003E
:10289000D96E010EE8CF3AF309DF8094350EAADD38
:1028A000D9507D0AD8B408D0D9501F0AD8B402D064
:1028B000060E03D0030E01D0070E9CDD80848094A9
:1028C000290E98DD010E96DD80848094330E92DD12
:1028D000010E90DD80840A0EACEF0FF003013A6B1D
:1028E000E5DE8094330E86DD000E84DD80848094E6
:1028F000290E80DD000E7EDD80841200CB00CFC06B
:10290000E1FFD0C0E2FF0001CE51D45D08E1CD511E
:10291000D35D05E1CC51D25D02E1CB51D15DD8B0A0
:1029200008D0D1C0CBF0D2C0CCF0D3C0CDF0D4C051
:10293000CEF08094290E5EDD000E5CDD80848094F4
:10294000010E58DD006A016A026A036A0001CE5175
:10295000035C08E1CD51025C05E1CC51015C02E170
:10296000CB51005CD8B00ED0E1CFE9FFE2CFEAFF57
:10297000E14AE22AEF503EDD002A000E0122022247
:102980000322E4D780848094290E34DD010E32DDE9
:102990008084CBC000F0CCC001F0CDC002F0CEC02E
:1029A00003F012000400000E81B4010E1200D96E73
:1029B0008094D9501FDD27DDD96E8084D950120054
:1029C000000EE8CF2DF32DC32CF32CC300F0003004
:1029D0000D92D8B00D8212000001986B996B03D84C
:1029E0000D9C1200980024C100F025C101F00001E7
:1029F0009951015C02E19851005CD8B002D0D890A6
:102A00000FD098C09AF099C09BF0D0EC1BF098C002
:102A100030F199C031F10301406B03013F6BD88065
:102A20001200920024C100F025C101F030C102F073
:102A300031C103F0000192510224F36E935103203F
:102A4000F46E0150F45C02E10050F35CD8B004D0A5
:102A5000F3CF24F1F4CF25F13FC300F0016A40C366
:102A6000E8FF00019225F36E000E9321F46E0150F1
:102A7000F45C02E10050F35CD8A0F3CF3FF3120006
:102A800030C102F031C103F024C100F025C101F0D2
:102A90000250005E0350015A1200000EE8CF41F3CD
:102AA000010141C326F1276B26C13AF127C13BF151
:102AB00087DF0001E56BE66B01D0E5000001050E44
:102AC000E65DDD0ED8B4E55DD8A002D0D8900CD07C
:102AD0008ED8E5C0E7F0E6C0E8F0DDEC1BF0E5C01D
:102AE0003AF1E6C03BF1D88012003AC102F03BC196
:102AF00003F0DC0E006E050E016E0250005E035006
:102B0000015A1200B700F36E40C3E8FFF3601FD014
:102B1000F350D96E3FC3E8FF0301405DD8B013D036
:102B200040C3E8FF03EED9F0E926000EEA22D92AD5
:102B3000D90413EED9F0E126000EE222EFCFE7FF31
:102B40000301402BE7D7D9CF3FF3F3CF40F324C1A4
:102B500000F025C101F030C1E8FF005CF36E31C127
:102B6000E8FF0158F46EB7C000F0016A0150F45C50
:102B700002E10050F35CD8B005D0F3CF00F0F4CF01
:102B800001F003D0B7C000F0016A00500001B76F38
:102B9000B7C000F0016A2A0E026E036A3FC3E8FF65
:102BA000025E000E035A0350800A046E0150800A30
:102BB000045C02E10050025CD8B009D02A0E006E1D
:102BC000016A3FC3E8FF005E000E015A03D0B7C0A0
:102BD00000F0016A0050B76FB751D96ED950D8B420
:102BE00003D0B751BCEC1BF00001B7511200030138
:102BF0004153D8A41DEC1BF00301416B3AC102F014
:102C00003BC103F026C100F027C101F00350015C75
:102C100002E10250005CD8B004D03AC126F13BC1B9
:102C200027F11200B4003FC3E8FF0301405DD8A0C4
:102C300005D02A0E0001B76F0A0E65DF3FC3E8FF1B
:102C40000301405DD8A002D0D8901DD040C3E8FF5A
:102C500003EED9F0E926000EEA22EF500001B66F2C
:102C60000301402B0101302B000E31230DBC04D099
:102C70000001B651E3EC20F0B4C0E9FFB5C0EAFFB3
:102C8000B6C0EFFFD88012000001E96F0101050E08
:102C90003B5DEA0ED8B43A5DD8A002D0D89018D0E7
:102CA0001F0E0301416501D0A2DF41C3E8FF04EE1E
:102CB00003F0E926000EEA22E9C0EFFF0301412BF1
:102CC00001013A2B3B230001E951E3EC20F0D880CD
:102CD000120000019A6F00019A079A29D8B403D014
:102CE000000ED2DFF8D71200980000019A6B9C6B9F
:102CF0009D6B7DDF37D03FC39BF000019B519C252E
:102D0000006E000E9D21016E9951015C02E1985107
:102D1000005CD8A005D0010E9A6F9C51985D9B6F06
:102D20000301406B00019B510301405DD8B00CD002
:102D300040C3E8FF03EED9F0E926000EEA22EF5087
:102D4000A3DF0301402BEED700019B5101EE30F0D1
:102D5000EE26000EED229B519C27000E9D239A51DA
:102D6000D8A411D02A0E0001B76F000ECCDE006E81
:102D700000C002F0036A03500210D8A4BCD70301BC
:102D80003F53D8A4B8D726C102F027C103F03AC1F7
:102D900000F03BC101F00350015C02E10250005C15
:102DA000D8B005D026C100F027C101F004D03AC147
:102DB00000F03BC101F000C026F101C027F19CC02A
:102DC00000F09DC001F0120000019D699C699E6B9E
:102DD000010E9F6FA20ED96F000EDA6FB60EDB6F79
:102DE000100EDC6FD6EC63F00001A20EC36F000E74
:102DF000C46FAEEC63F000500001A06FA16BE50E54
:102E0000C36FFC0EC46FC56BC66B9C0EC76F000E04
:102E1000C86F260EC96FCA6BCB6B3DEF1DF095686E
:102E2000846A858C858A8588640EACEC0FF0859861
:102E3000640EACEC0FF00301306B0301356B030142
:102E4000366B630EE8CFA4F212000001936B0A0EFA
:102E5000ACEC0FF0010E0001946FE00E7AEC1FF065
:102E6000640EACEC0FF0640EACEC0FF00001EE6BF6
:102E7000EF6B6DEC1EF0D8A01ED10001FA69FB6962
:102E8000340E33EC1FF00001FA6BFB6B320E33ECA7
:102E90001FF00001010EDF6FFC0EE06FE16BE26BD3
:102EA000610EE36F030EE46F060EE56FE66BE76BF2
:102EB0001EEC1CF00001400E946F060E956F0BEC9B
:102EC0001EF000C038F101C039F10101385139114B
:102ED000D8B4F1D00001946BFC0E956F966B976B94
:102EE000A6C198F0996B04EC1CF00101A653D8A47C
:102EF00023D066C300F000380F0B84EC49F0E8CF14
:102F0000B0F166C3E8FF0F0B84EC49F0E8CFB1F1F4
:102F10000101B26B0001040EC36FFC0EC46FC56BE0
:102F2000C66BA80EC76F010EC86F0A0EC96FCA6BB9
:102F3000010ECB6F3DEC1DF00001A80EC36F010E1A
:102F4000C46FAEEC63F000500001926F020EC36FCD
:102F5000FC0EC46FC56BC66BA80EC76F010EC86FA1
:102F60009251C96FCA6B010ECB6F3DEC1DF0000191
:102F7000030E946FFC0E956F966B976BA7C198F03C
:102F8000996B04EC1CF00001060E946FFC0E956F1B
:102F9000966B976B030E986F996B04EC1CF0000115
:102FA000070E946FFC0E956F966B976BEA0E986FF9
:102FB000050E996F04EC1CF00001840E946FFC0E5A
:102FC000956F966B976B0F0E986F996B04EC1CF0D6
:102FD0000001B00E946FFC0E956F966B976B010E0F
:102FE000986F996B04EC1CF00001B30E946FFC0E0B
:102FF000956F966B976B0F0E986F996B04EC1CF0A6
:103000000001B40E946FFC0E956F966B976B0F0ECC
:10301000986F996BF9DB01EEDBF0EF500001D8B44B
:103020000BD0090E946FFC0E956F966B976B010E8B
:10303000986F996BE9DB00012A0E946FFC0E956F77
:10304000966B976B01EECBF0EF50D8A402D0010E37
:1030500001D0020E006E016A00C098F001C099F024
:10306000D3DB01EECAF0EF50D8B41CD00001280E1B
:10307000946FFC0E956F966B976B030E986F996B20
:10308000C3DB0001240EC36FFC0EC46FC56BC66B9F
:10309000CE0EC76F010EC86FCDC1C9F0CA6BCB6B26
:1030A0003DEC1DF0010E0001EE6FEF6B6DEC1EF0BC
:1030B000010E0001936F93C000F000301200020E69
:1030C0000001EE6FEF6B6DEC1EF00A0EACEC0FF032
:1030D0000001EE6BEF6B6DEF1EF00001946B956BD2
:1030E000F66BF76BABEC1EF000C092F001C093F0F2
:1030F000000192A161D0200E1FEC1FF000C02EF144
:1031000001C02FF12EC1D9F02FC1DAF02C0E000131
:10311000DB6FDC6B5FDB00C094F001C095F0000159
:10312000000E955D090ED8B4945DD8A03BD0050E75
:10313000955DE50ED8B4945DD8B034D02EC1D9F0E9
:103140002FC1DAF0420E0001DB6FDC6B43DB00C005
:10315000FCF001C0FDF04DEC21F000C0A4F101C075
:10316000A5F12EC1DFF02FC1E0F02E0E0001E16FBE
:10317000E26B980EE36F010EE46F0C0EE56FE66BE9
:10318000E76B5CDB29DC2EC1DFF02FC1E0F0440EE1
:103190000001E16FE26BE36BE46BE56BE66BE76B01
:1031A0004DDB10D00001946B956B92C0F6F093C08C
:1031B000F7F0ABEC1EF006D092C0F6F093C0F7F03B
:1031C000ABEC1EF094C024F195C025F1000195519F
:1031D0009411D890D8A4D88012000001A06FF66B8B
:1031E000F76BABEC1EF000C0A1F001C0A2F0000133
:1031F000A1AF16D0A05116D800C0A3F001C0A4F012
:10320000800E0001F66FF76BABEC1EF00001A451CD
:10321000F10A030ED8B4A319D8A402D0010E01D02C
:10322000000E12000001A56F080EB56FB66B100EF0
:103230001FEC1FF000C0B3F001C0B4F0B3C0D9F070
:10324000B4C0DAF00001DB6BDC6BC4DA00C0ADF0B7
:1032500001C0AEF0B3C0D9F0B4C0DAF0020E000184
:10326000DB6FDC6BB7DA00C0AFF001C0B0F000017B
:10327000D890AD37AE37A66BD968B051F10A030EBE
:10328000D8B4AF19D8B46AD17AD1B3C0DFF0B4C022
:10329000E0F00001100EB525E16F000EB621E26FDF
:1032A000B70EE36F000EE46F220EE56FE66BE76B7F
:1032B000C5DAB3C0D9F0B4C0DAF0B5C0DBF0B6C03F
:1032C000DCF088DA00C0A9F001C0AAF0B3C0D9F0E0
:1032D000B4C0DAF00001040EB525DB6F000EB62194
:1032E000DC6F78DA001E011E002AD8B4012A00C063
:1032F000ABF001C0ACF0B3C0D9F0B4C0DAF000015B
:103300000E0EB525DB6F000EB621DC6F63DA00C050
:10331000B1F001C0B2F00001A505D8A4B9D0710E7A
:10332000D96F100EDA6FC4EC49F00001B751A76FE6
:10333000210EA76114D0020EA86FA7270001A75184
:10334000A85DD8B013D00001A82BA80500EEB7F0F7
:10335000E926000EEA22EF508EEC49F0EFD700018B
:10336000640ED96F100EDA6FC4EC49F000017A0ECA
:10337000D96F100EDA6FC4EC49F0A9C0D9F0AAC019
:10338000DAF003EC4AF00001A80ED96F100EDA6FE4
:10339000C4EC49F0ABC0D9F0ACC0DAF003EC4AF0B1
:1033A00000017A0ED96F100EDA6FC4EC49F00001FB
:1033B000B1A107D05C0ED96F100EDA6FC4EC49F0E2
:1033C00011D00001B1A307D0560ED96F100EDA6FDD
:1033D000C4EC49F007D00001640ED96F100EDA6F0B
:1033E000C4EC49F000017A0ED96F100EDA6FC4EC0C
:1033F00049F00001B1A907D0490ED96F100EDA6F5C
:10340000C4EC49F007D00001B10ED96F100EDA6F8D
:10341000C4EC49F000017A0ED96F100EDA6FC4ECDB
:1034200049F00001B1A125D08F0ED96F100EDA6FCF
:10343000C4EC49F0020E0001A86F0001A751A85D7D
:10344000D8B00FD0250E8EEC49F00001A82BA805AE
:1034500000EEB7F0E926000EEA22EF50F1EC49F059
:10346000ECD70001840ED96F100EDA6FC4EC49F06E
:1034700007D00001A10ED96F100EDA6FC4EC49F02D
:103480000001660ED96F100EDA6FC4EC49F060D0FF
:103490000001A551020AD8A45BD0B751F36E210EEA
:1034A000F36056D0B1A154D00001B1B951D0D96A5E
:1034B000F350D95CD8B016D0B70ED924006E016A8B
:1034C000000E0122020E0024E16E000E0120E26EC9
:1034D000D95003EE95F0E926000EEA22E7CFEFFF80
:1034E000D92AE6D7F35003EE95F0E926000EEA223A
:1034F000EF6A0001950ED96F030EDA6FA80EDB6F2D
:10350000010EDC6FFBEC06F00150800A800F010E0B
:10351000D8B4005CD8A01CD00301B7530001D8B4C4
:103520000DD0950ED96F030EDA6FB70EDB6F030E59
:10353000DC6FFBEC06F001AE0BD00001B70ED96FCB
:10354000030EDA6F950EDB6F030EDC6FD6EC63F0C3
:10355000400E0001B527000EB623A62B3C0EB5C0C9
:1035600000F0B6C001F00026000E01220001AE51AD
:10357000015C02E1AD51005CD8B005D086D60001F7
:10358000B051F20AAF11AFC000F0B0C001F01200AC
:10359000010E0001F66FF76BDED30001410EDF6F05
:1035A000FD0EE06FE16BE26B950EE36F030EE46FCF
:1035B000200EE56FE66B010EE76F40D90001400E6B
:1035C000D96FFD0EDA6FDB6BDC6B04D900C042F300
:1035D00042C3E8FF040AD8B40D8642C3E8FF0201E3
:1035E000A419D8B429D000015F0E926F100E936F0A
:1035F000C4EC0FF042C3E8FFECEC0FF0D96AD950ED
:1036000003EE95F0E926000EEA22EF50D8B40BD075
:10361000D92AD90403EE95F0E926000EEA22EF50EC
:10362000BFEC0FF0ECD70001B40E926F100E936F49
:10363000C4EC0FF042C3A4F2120003014153D8B40A
:1036400009D00001030EEA6F040EEB6F41C3ECF0EA
:10365000ED6B7DDA1200F7EC15F00101050E275D28
:10366000EA0ED8B4265DD8B005D026C100F027C137
:1036700001F004D0EA0E006E050E016E00C0E4F009
:1036800001C0E5F038C1EAF039C1EBF00001EC6BA4
:10369000ED6BA3DAD8A06FD002DBD8A06CD000010C
:1036A000E86BE96BFA6BFB6B380EDDDB0001E84B76
:1036B000E92B000EE95D160ED8B4E85DD8A0F2D76C
:1036C000080EE425E66F000EE521E76FE6C0FAF08C
:1036D000E7C0FBF0380EC7DB00019E0EEA6F010E5B
:1036E000EB6F060EEC6FED6B32DA0001610EEA6FE4
:1036F000030EEB6F060EEC6FED6B29DAE6C0FCF003
:10370000E7C0FDF04DEC21F000C0FAF001C0FBF085
:10371000380EA9DB0001AA0EFA6FFB6F380EA3DB8F
:10372000030E0001FA6FFB6B380E9DDB0001FA6B94
:10373000FB6B380E98DBA4C1FCF0A5C1FDF04DEC8D
:1037400021F000C0FAF001C0FBF0380E8CDB38C16C
:10375000FAF039C1FBF0020E86DB00010B0EEE6FB2
:10376000010EEF6FBADA080E0001EE6FEF6B080E74
:10377000F06FF16B0FDB12000001B86F3FC300F078
:10378000D90E0024EE6FEF6B030EEF23B851F06FEC
:10379000F16B43D90001B85103013F2712009A0091
:1037A0002EC1EEF02FC1EFF00001440E9A25F06F0C
:1037B000000E9B21F16FF3D1E70038C1EAF039C167
:1037C000EBF00001440EE725EC6F000EE821ED6FF1
:1037D00004D2D9000001DD6BDE6BD9C0DFF0DAC0A6
:1037E000E0F0DBC0E1F0DCC0E2F0DD0EE36F000EE4
:1037F000E46F020EE56FE66BE76B20D8DDC000F0EA
:10380000DEC001F01200940094C0C3F095C0C4F073
:1038100096C0C5F097C0C6F00001980EC76F000EA5
:10382000C86F020EC96FCA6BCB6B27D90050020A52
:103830000110D890D8B4D8801200DF000001EC6BE2
:10384000ED6BDFC0EAF0E0C0EBF0F00EE05D000EE3
:10385000D8B4DF5DD8A0BFD0F30EE05D000ED8B4C1
:10386000DF5DD8B01ED0DFC0FAF0E0C0FBF0020E82
:10387000FADA110E0001EE6FEF6B2FDA800E000105
:10388000EE6FEF6B900EF06FF16B84DA0150001069
:10389000D8B44BD0100ED3DA00C0EAF001C0EBF080
:1038A0000DD0EAC0FAF0EBC0FBF0020EDCDA210E1C
:1038B0000001EE6FEF6B11DAD8A037D0EAC0EEF05E
:1038C000EBC0EFF00001F06BF16B69D9D8A09FD08D
:1038D000C9D9D8A09CD0360EB2DAFF0E0024000160
:1038E000EC6FFF0E0120ED6FD890EC37ED37ED5106
:1038F000E65D02E1EC51E55DD8B005D0E5C000F031
:10390000E6C001F004D0ECC000F0EDC001F000C052
:10391000ECF001C0EDF0360E92DA0001E051011832
:1039200002E1DF510018D8B403D0006A016A73D0F5
:103930000001E705D8A426D0000EED5D020ED8B434
:10394000EC5DD8A01FD0360E7ADA00C0E8F001C0D6
:10395000E9F00001FE0EEC27FF0EED23ED51E95DCD
:1039600002E1EC51E85DD8B005D0E8C000F0E9C054
:1039700001F004D0ECC000F0EDC001F000C0ECF0AC
:1039800001C0EDF00001E251E111D8B409D0EAC064
:10399000EEF0EBC0EFF0E1C0F0F0E2C0F1F0FFD8E4
:1039A0000001ED51EC11D8B409D0E3C0EEF0E4C051
:1039B000EFF0ECC0F0F0EDC0F1F02FD80001E7051A
:1039C000D8A425D0EC51E325E96EED51E421EA6E4F
:1039D000000EEF6A1CD0EAC0EEF0EBC0EFF0E1C0E1
:1039E000F0F0E2C0F1F0DBD8D8A011D03BD9D8A0DC
:1039F0000ED00001E651E511D8B409D0E3C0EEF0D5
:103A0000E4C0EFF0E5C0F0F0E6C0F1F006D8ECC09D
:103A100000F0EDC001F01200EE000001D890F1318D
:103A2000F36FF031F26F1ED90001F251006EF351C5
:103A3000016EF207000EF35B01500010D8B410D0F5
:103A4000360EFDD9EEC0E9FFEFC0EAFF0001020E1D
:103A5000EE27000EEF2300C0EEFF01C0EDFFE4D71C
:103A60000001F0A108D0360EEAD9EEC0E9FFEFC0A0
:103A7000EAFF00C0EFFF1200C300C3C0EAF0C4C0F9
:103A8000EBF00001EC6BED6BA8D8D8A05CD007D9A7
:103A9000D8A059D00001F00EC45D000ED8B4C35DAB
:103AA000D8A01BD0030EC925F36E000ECA21F46EF8
:103AB000D890F432F332CB05D8A402D0F34AF42ADA
:103AC000F3CFFAF0F4CFFBF0380ECDD9E8D8C3C06D
:103AD000FAF0C4C0FBF0380EC6D90001CB05D8A45B
:103AE00006D0C9C0FAF0CAC0FBF0380EBCD900013C
:103AF000C651C511D8B40AD0C3C0EAF0C4C0EBF0B7
:103B0000C5C0ECF0C6C0EDF068D8C9D8C7C0EAF0AF
:103B1000C8C0EBF0C9C0ECF0CAC0EDF018D8BFD8EF
:103B2000C3C0FAF0C4C0FBF0020E9DD90001210E03
:103B3000EE6F010EEF6FD1D8D8A005D0C9C000F04C
:103B4000CAC001F002D0006A016A1200EA00000156
:103B5000EC29EE6F000EED21EF6FD890EF33EE33CE
:103B60009ED80001EE51006EEF51016EEE07000E7F
:103B7000EF5B01500010D8B410D0EAC0E9FFEBC0F1
:103B8000EAFF0001020EEA27000EEB23EECFFAF067
:103B9000EDCFFBF0380E67D9E4D71200EE0062D803
:103BA000D8A018D0EEC0FAF0EFC0FBF0180E5BD929
:103BB00059D8D8A00FD0F0C0FAF0F1C0FBF01C0E1D
:103BC00052D950D8D8A006D01C0E39D9D89001AC03
:103BD000D88001D0D8901200EA0061D8D8A018D0BF
:103BE000EAC0FAF0EBC0FBF01A0E3DD958D8D8A0C5
:103BF0000FD0ECC0FAF0EDC0FBF01E0E34D94FD858
:103C0000D8A006D01E0E1BD9D89001ACD88001D008
:103C1000D890120094000001966B976B94C0FAF054
:103C200095C0FBF0020E1FD90A0E0001EE6FEF6B7C
:103C300054D8D8A012D0080E0001EE6FEF6B080E1A
:103C4000F06FF16BA7D801500010D8B406D0220E47
:103C5000F6D800C096F001C097F096C000F097C06B
:103C600001F012000001F66B400EF76F1C0EE7D852
:103C700000C0F4F001C0F5F00001F5AF0ED0000176
:103C8000F651006EF751016EF607000EF75B01501A
:103C90000010D8A4EBD7D89001D0D8801200000132
:103CA000F26B400EF36F1E0ECAD800C0F0F001C0D8
:103CB000F1F00001F1AF0ED00001F251006EF351AE
:103CC000016EF207000EF35B01500010D8A4EBD791
:103CD000D89001D0D8801200EE00EEC0FAF0EFC00C
:103CE000FBF0000EC0D80ED800C0F0F001C0F1F01B
:103CF0000001006AF151016E01500010D890D8B453
:103D0000D88012000001F46B400EF56F100E000118
:103D1000F66FF76B20D801500010D8A410D0000126
:103D2000F451006EF551016EF407000EF55B015081
:103D30000010D8A4EBD7FF0E006801680AD0080E67
:103D40007ED800C0F2F001C0F3F0F2C000F0F3C082
:103D500001F01200F600300E72D800C0F8F001C079
:103D6000F9F00001F751F611D8B40ED0F651F8175A
:103D7000F751F917F951F811D8B406D0F8C0FAF094
:103D8000F9C0FBF0340E6FD8F8C000F0F9C001F0B4
:103D90001200EE000001F26B400EF36F300E4FD8B0
:103DA00000C0F4F001C0F5F0F4C000F0F5C001F07F
:103DB0000001EE510016EF51011601500010D8A479
:103DC00024D0F4C000F0F5C001F00001F05100165D
:103DD000F151011601500010D8B408D0F051F4157B
:103DE000FA6FF151F515FB6F340E3DD80001F25119
:103DF000006EF351016EF207000EF35B01500010EC
:103E0000D8A4CCD7006A016A19D0EEC000F0EFC088
:103E100001F00001F0510016F1510116015000109F
:103E2000D8B408D0F051EE15FA6FF151EF15FB6FD1
:103E3000340E19D8F4C000F0F5C001F012000001F2
:103E4000FC6FFC511BD80001FB6FFC2917D8000147
:103E5000FA6FFB51FAC000F0016A00C001F0006A7D
:103E60000012000CFA000001FC6FFA51FD6FFC51CA
:103E70001BD80001FB51FD6FFC2916D09568846E9C
:103E8000859E00F000F000F000F000F000F000F07F
:103E900000F08350D96E858E00F000F0956A83683B
:103EA0009568D9501200FD00846E0001FD51836EAB
:103EB000956A869800F000F000F000F000F000F045
:103EC00000F000F086888368956812009568846E1B
:103ED000859A00F000F000F000F000F000F000F033
:103EE00000F08350D96E858A956A83689568D950A9
:103EF00012009400846E00019451836E956A859C33
:103F000000F000F000F000F000F000F000F000F031
:103F1000858C8368956812009D0000019F0EB46F28
:103F2000000EB56F13EC16F0D8A019D00001A00E4A
:103F3000B46F000EB56F13EC16F0D8A010D00001CE
:103F40009F51F46EA0C0E8FFF36E9DC0E9FF9EC0D4
:103F5000EAFFF3CFEEFFF4CFEDFFD88001D0D89089
:103F60001200A2000001A40EB46F000EB56F13EC96
:103F700016F0D8A06ED00001A50EB46F000EB56F7C
:103F800013EC16F0D8A065D00001A60EB46F000E99
:103F9000B56F13EC16F0D8A05CD00001A70EB46F7B
:103FA000000EB56F13EC16F0D8A053D0080EA4C0C5
:103FB00000F0016A026A036A41EC64F000C0ACF0F0
:103FC00001C0ADF002C0AEF003C0AFF0A5C000F07C
:103FD000016A026A036A0001AC510026AD51012258
:103FE000AE510222AF510322080E41EC64F000C032
:103FF000B0F001C0B1F002C0B2F003C0B3F0A6C08F
:1040000000F0016A026A036AB0510026B151012230
:10401000B2510222B3510322080E41EC64F0A751C1
:104020000024A86F000E0120A96F000E0220AA6FC5
:10403000000E0320AB6FA2C0E9FFA3C0EAFFA8C037
:10404000EEFFA9C0EEFFAAC0EEFFABC0EEFFD88026
:1040500001D0D89012009A0000019F6BA06B10D085
:1040600000019B519A11D8B408D09AC0E9FF9BC0B7
:10407000EAFF9EC0EFFF9A4B9B2B00019F4BA02BAA
:1040800000019D51A05D02E19C519F5DD8B008D018
:104090009E0EB46F000EB56F13EC16F0D8B0E0D7DB
:1040A0009FC000F0A0C001F0120000019A6F9B0EAB
:1040B000B46F000EB56F13EC16F0D8A006D0000157
:1040C0009B519A6302D0D88001D0D89012008D0005
:1040D00000018D0E9D6F000E9E6F1FDFD8A00AD0CD
:1040E00000018E518E1902E18D518D19D8A402D094
:1040F000D88001D0D89012009A0000019E0EA26FC5
:10410000000EA36F2FDFD8A010D000019D51A11980
:1041100008E19C51A01905E19B519F1902E19A51B8
:104120009E19D8A402D0D88001D0D890120098004F
:1041300004D00001984B992B9A0700019A51D8B4EA
:1041400011D09B0EB46F000EB56F13EC16F0D8A013
:1041500009D098C0E9FF99C0EAFFEF5000019B1910
:10416000D8B4E7D700019A51D8A402D0010E01D0EB
:10417000000E12000001980EB46F000EB56F13EC24
:1041800016F0D8A002D0D88001D0D89012009D009F
:1041900004D000019D07D8A09E0700019E519D11EB
:1041A000D8B408D09F0EB46F000EB56F13EC16F0A4
:1041B000D8B0EFD700019E519D11D8A402D0D8806D
:1041C00001D0D8901200D96E0DA20FD0D9500301A2
:1041D0002D27D9502D6117D00301010E2C2B2C5304
:1041E000D8A411D003012D2B0ED0D95003012C27B8
:1041F000D9502C6108D00301010E2D2B2D53D8A4CA
:1042000002D003012C2B0D721200E5000001E651D3
:10421000DADF0001E551D7D7E5000001E851D3DF2F
:104220000001E751D0DF0001E651CDDF0001E5518B
:10423000CAD7E5000001E65144EC16F00001E55153
:1042400044EF16F0E5000001E85144EC16F00001DF
:10425000E75144EC16F00001E65144EC16F0000181
:10426000E55144EF16F0AF000001B151006EB251BC
:10427000016EB107000EB25B01500010D8B40BD034
:10428000AFC0E9FFB0C0EAFF0001AF4BB02BEF5069
:1042900044EC16F0E9D71200FC00FCC002F0FDC0AF
:1042A00003F002C003F0026A0001FD51006E016AD2
:1042B00002500010F36E03500110F46EF3CF00F0C3
:1042C000F4CF01F01200000EF0DED8A072D0010E83
:1042D000ECDED8A06ED0080EE8DED8A06AD0000EC2
:1042E000E4DED8A066D0060EE0DED8A062D0040ED0
:1042F000DCDED8A05ED00001920E9D6F000E9E6F96
:104300000CDED8A056D00001940E9A6F000E9B6F61
:10431000060E9C6F9D6BA0DE01500010D8B449D0F2
:104320000001800EA26F010EA36F1CDED8A041D049
:10433000060E00019D6F9E6B2BDFD8A03AD068C19E
:104340009AF069C19BF06AC19CF06BC19DF0D5DE0B
:10435000D8A02FD0000192059311D8A404D0020E4A
:104360002AD8D88027D000019251020A9311D8A4EC
:1043700020D001EE80F001014051EE1808E14151DA
:10438000EE1805E14251EE1802E14351EE18D8B49F
:104390000DB00FD00001430EA26F030EA36F940E59
:1043A000A46F000EA56F060EA66FA76B41EC07F079
:1043B0000D80D89012000001AE6F4DEC15F0000199
:1043C000AE05D8A40BD09E0EAF6F010EB06FB169D1
:1043D000B26B060EB36FB46BFDEC63F0010E00011F
:1043E000E56FE66B27DF0001E56B080EE66F22DF65
:1043F000060E44EC16F0040E44EC16F00001AE512B
:10440000E56FE66B17DF0001610EAF6F030EB06F53
:10441000060EB16FB26B28DF68C1E5F069C1E6F046
:104420006AC1E7F06BC1E8F00EDF00019E0EAF6FCE
:10443000010EB06F060EB16FB26B16DF80C1E5F0F2
:1044400081C1E6F082C1E7F083C1E8F0FCDE010142
:10445000060EA46F080EA56F2BEF1BF0AE00000137
:1044600068C1E8FFAE19006E69C1E8FFAF19016EBF
:104470006AC1E8FFB019026E6BC1E8FFB119036EA3
:104480006CC1E8FF0014046E6DC1E8FF0114056EF5
:104490006EC1E8FF0214066E6FC1E8FF0314076ED9
:1044A0000750041005100610D890D8B4D880120018
:1044B000AA000D90AAC0AEF0ABC0AFF0ACC0B0F097
:1044C000ADC0B1F0CCDFD8B009D064C100F065C197
:1044D00001F066C102F067C103F008D0AAC000F085
:1044E000ABC001F0ACC002F0ADC003F000C040F1C1
:1044F00001C041F102C042F103C043F140C180F16B
:1045000041C181F142C182F143C183F1010E53D710
:10451000D8900DB0D8801200E0EC14F0450EC5DD47
:10452000D8A080D027DED8A07DD000011C0E9D6FC2
:10453000010E9E6FF2DCD8A075D0020E00019D6FB7
:104540009E6B26DED8A06ED0020E00019D6F9E6B82
:104550001FDED8A067D00EDED8A064D00001380ED0
:10456000B46F030EB56F13EC16F0D8A05BD0020E3B
:1045700000019D6F9E6B0CDED8A054D00001800E10
:10458000A26F010EA36FEEDCD8A04CD000015C0E30
:10459000A26F010EA36FE6DCD8A044D001016851E0
:1045A00069116A116B11D8B41CD001EE68F05C512E
:1045B000EE1808E15D51EE1805E15E51EE1802E1DA
:1045C0005F51EE18D8B40DD001015C1DFF0ED8B4B8
:1045D0005D19FF0ED8B45E19FF0ED8B45F19D8A4C8
:1045E00021D02CC300F00028D8A41CD02DC300F08B
:1045F0000028D8A417D00101000E1D5D150ED8B4F7
:104600001C5DD8A00FD01CC100F01DC101F0EC0E44
:1046100000240001926FFF0E0120936F12EC15F041
:10462000D88001D0D8901200E0EC14F01CC100F04A
:104630001DC101F0E80E00240001946FFF0E01205F
:10464000956F01EE68F001015C51EE1808E15D51D3
:10465000EE1805E15E51EE1802E15F51EE18D8A4A4
:104660004AD0080E22DDD8A046D0000E1EDDD8A00C
:1046700042D00001960E9D6F000E9E6F4EDCD8A0BA
:104680003AD030C192F031C193F094C09DF095C002
:104690009EF07EDD92C098F093C099F0F3EC14F098
:1046A0002CC300F00028D8A426D02DC300F0002889
:1046B000D8A421D04DEC15F020D80001E56BE66BB5
:1046C000B9DD0001080E9727975D000ED8B4965DFE
:1046D000D8B002D0964B972B96C0E5F097C0E6F085
:1046E000A9DD94C098F095C099F075EC16F02BEC0C
:1046F0001BF0D88001D0D8901200E0EC14F0450EE9
:1047000044EC16F0000E44EC16F01CC1E5F01DC19F
:10471000E6F090DD000E44EC16F00301292B29C3CE
:10472000E8FF44EC16F00001E56BE66B83DD640EF8
:1047300044EC16F038C3E8FF44EC16F068C1E5F02D
:1047400069C1E6F06AC1E7F06BC1E8F066DD80C1DF
:10475000E5F081C1E6F082C1E7F083C1E8F05DDDFC
:104760002CC3E8FFFF0A44EC16F02DC3E8FFFF0A54
:1047700044EC16F068C1E5F069C1E6F06AC1E7F003
:104780006BC1E8F060DD80C1E5F081C1E6F082C177
:10479000E7F083C1E8F057D50001936BE0EC14F02B
:1047A0000001280E9D6F010E9E6F8DEC1FF0D8A0AA
:1047B00046D10001220E9D6F010E9E6F8DEC1FF001
:1047C000D8A03DD10001840EA26F010EA36FB2EC00
:1047D0001FF0D8A034D100017C0EA26F010EA36F90
:1047E000B2EC1FF0D8A02BD10001920EB46F000ED6
:1047F000B56F13EC16F0D8A022D10001940EB46F5F
:10480000000EB56F13EC16F0D8A019D1060E0001FA
:104810009D6F9E6BBDDCD8A012D10101000E1D5D05
:10482000280ED8B41C5DD8A00AD101EE68F00101B1
:104830005C51EE1808E15D51EE1805E15E51EE188D
:1048400002E15F51EE18D8A4FAD01CC100F01DC1DE
:1048500001F0EC0E00240001E56FFF0E0120E66F71
:10486000D5DC68C1E5F069C1E6F06AC1E7F06BC16B
:10487000E8F0D3DC80C1E5F081C1E6F082C1E7F069
:1048800083C1E8F0CADC000E9EDC060E9CDC08D07A
:104890000101FC0E1C27FF0E1D23F00E00019227C4
:1048A000510E0001926101D00CD001011C511D116B
:1048B000D8B407D0040E00019D6F9E6B69DCD8B0A0
:1048C000E7D70101D80E1C25E8CF2CF1FF0E1D21E2
:1048D000E8CF2DF130C195F031C196F02CC19DF09B
:1048E0002DC19EF055DC95C098F096C099F0F3EC80
:1048F00014F02CC300F00028D8A49ED02DC300F0E3
:104900000028D8A499D04DEC15F0280E0001E56FD1
:10491000E66B5EEC15F00301336B0301326B0301B0
:1049200030530101D8B421D001C1E8FF231903E1BC
:1049300000C1E8FF2219D8A417D001EE44F001010C
:104940008051EE1808E18151EE1805E18251EE1810
:1049500002E18351EE18D8B40DAE06D00001945197
:1049600034D90001936B946B010135C1E8FF231921
:1049700003E134C1E8FF2219D8B40DBE5BD00001B9
:1049800094A324D00101842B000E85238623872342
:10499000100E08C100F009C101F0026A036A41EC7F
:1049A00064F000C07CF101C07DF102C07EF103C063
:1049B0007FF1FF0E7C077D23000E7E237F23082BD3
:1049C0000923D5EC4AF0120E3CD834D0000194A94A
:1049D00021D001012C512D11D8B41CD02CC100F0D4
:1049E0002DC101F001EE84F00050EE260150EE22C0
:1049F000000EEE22ED22ED52ED52B7EC52F0040122
:104A00003153D8A404D0B3EC4AF0110E01D0100EEB
:104A10000001936F000194A109D00101842B000EC5
:104A2000852386238723100E0001936F0001935185
:104A3000D8A407D8D88004D0400EBFEC0FF0D8908F
:104A400012000001E36FF7EC15F02CC332F32DC315
:104A500033F30101000E275D280ED8B4265DD8B0CF
:104A600003D0280E266F276B0001E3A305D00101B8
:104A7000040E2627000E272326C11CF127C11DF195
:104A80000001E56BE66B5EEC15F0060EE8CF38F33F
:104A900034DE0001E35102D82BEF1BF00001E46F7C
:104AA0000101A46B080EA56F0D9232C32CF333C322
:104AB0002DF322C1E5F023C1E6F01AEC21F028C164
:104AC000E5F029C1E6F01AEC21F07CC1E5F07DC1EA
:104AD000E6F07EC1E7F07FC1E8F023EC21F084C16D
:104AE000E5F085C1E6F086C1E7F087C1E8F023EC88
:104AF00021F00001E4B302D0500E01D0600E44EC6E
:104B000016F00001E45144EC16F0030E44EC16F0EC
:104B1000200E44EC16F00001E4A318D0280EE56F37
:104B2000E66B5EEC15F0020E44EC16F0040E44EC5D
:104B300016F00001B40EE56F050EE66F1AEC21F0D9
:104B4000240E0001E56FE66B5EEC15F068C1E5F040
:104B500069C1E6F06AC1E7F06BC1E8F00DEC21F045
:104B600080C1E5F081C1E6F082C1E7F083C1E8F0E1
:104B70000DEC21F0000EE3EC20F0060EE3EC20F04B
:104B80001CC100F01DC101F0EC0E00240001E56F16
:104B9000FF0E0120E66F06EC21F02CC3E8FFFF0AB0
:104BA00044EC16F02DC3E8FFFF0A44EC16F00001B8
:104BB000E56BE66B1AEC21F00001E4A305D02C0EA6
:104BC000E56FE66B5EEC15F012000001986B170BB9
:104BD000976FAAD000019E6B140EC5D9B6D0000104
:104BE0009751120AD8A427D001EE4CF001017C5154
:104BF000EE1808E17D51EE1805E17E51EE1802E154
:104C00007F51EE18D8A417D001018429E8CF48F1CC
:104C1000000E8521E8CF49F1000E8621E8CF4AF148
:104C2000000E8721E8CF4BF100019E6B100E9BD93F
:104C3000030E03DA8AD000019E6B140E94D9000E85
:104C4000FCD983D001EE84F001014851EE1808E14F
:104C50004951EE1805E14A51EE1802E14B51EE18A8
:104C6000D8B406D0010E00019E6F100E7CD96DD015
:104C700001012C512D11D8B417D0030EDED90D8CA3
:104C8000B1EC5CF0100E0001986F2CC100F02DC14A
:104C900001F001EE48F00050EE260150EE22000E29
:104CA000EE22ED22ED52ED52000197A10BD0110E34
:104CB000986F0101482B000E49234A234B23040E11
:104CC000BCD908D003012E530001D8B404D0988178
:104CD000050EB3D900019851D8B437D09E6B9851C6
:104CE00042D933D000019751100AD8A42ED0000E1B
:104CF000A4D92BD0000197A10DD00101482B000EA3
:104D000049234A234B2300019E6B100E2CD9000E21
:104D100094D91BD001012C512D11D8B416D000010B
:104D20009E6B100E20D911D030C3E8FF000A01E1BC
:104D300051D7010A01E14ED7030A01E150D7010A18
:104D400081E0070ACFE0010AD5E01200A4000301C8
:104D50003053D8A42BD0A4C044F1A5C045F1A6C0BF
:104D600046F1A7C047F1A8C00AF1A9C00BF10101A3
:104D7000006B016B03012E6B44C1AAF045C1ABF07F
:104D800046C1ACF047C1ADF059EC22F000010C0E69
:104D9000AB6F010EAC6FAD6BAE6B12EC37F0040E67
:104DA000E8CF31F3010E49D9D88001D0D890120054
:104DB00030C3E8FF030AD8A404D0010EE8CF2EF3D5
:104DC00002D0000E3AD9120030C3E8FF030AD8A47B
:104DD00016D003012E53D8B412D04DEC15F0280E86
:104DE0000001E56FE66B5EEC15F000019E6B010EB5
:104DF000BAD8050E22D9010EE8CF31F3B2D030C3B4
:104E000000F00004D8A456D088EC22F00001D8A00D
:104E100034D0490EA26F030EA36F430EA46F030E8E
:104E2000A56F060EA66FA76B41EC07F04DEC15F0D1
:104E3000280E0001E56FE66B5EEC15F03EC300F056
:104E4000016A000E0024E8CF00F1040E0120E8CF33
:104E500001F103013E2B01014F6B4E6B270E4D6F8D
:104E60000F0E4C6F486B496B4A6B4B6B00019E6B8E
:104E7000020E79D8020EE1D874D00C0EAB6F010E81
:104E8000AC6F280EAD6FAE6B12EC37F0D8A069D0C6
:104E9000030131073129D8B40BD044C1AAF045C170
:104EA000ABF046C1ACF047C1ADF059EC22F059D09F
:104EB0007FDF57D0010E0301306553D000010C0E87
:104EC000AB6F010EAC6F00EEADF00EC1EEFF0FC187
:104ED000EDFF12EC37F0D8A044D00301310731299F
:104EE000D8B42ED001EE0EF00EC1E8FFEE260FC1B1
:104EF000E8FFED224DEC15F0280E0001E56FE66BA2
:104F00005EEC15F030C3E8FF020AD8A405D0010E0C
:104F100000019E6F020E27D830C3E8FF040AD8A410
:104F200005D0010E00019E6F110E1DD830C3E8FFA1
:104F3000050AD8A416D0010E00019E6F14D811D016
:104F4000020E030130650CD04DEC15F0280E000167
:104F5000E56FE66B5EEC15F000019E6B140E03D856
:104F600027DF12009E0000019F6FA06BA16BF7EC82
:104F700015F000019E51D8B40AD09F51030BD8B44C
:104F800006D001014C07000E4D5B4E5B4F5B0001EC
:104F90009E0EA26F010EA36F490EA46F030EA56FA4
:104FA000060EA66FA76B41EC07F04CC17CF14DC11A
:104FB0007DF14EC17EF14FC17FF148C184F149C1FD
:104FC00085F14AC186F14BC187F100C122F101C1CF
:104FD00023F10AC128F10BC129F144C180F145C177
:104FE00081F146C182F147C183F10101000E275DC5
:104FF000290ED8B4265DD8A00BD026C100F027C159
:1050000001F0D80E00240001A06FFF0E0120A16F57
:1050100000019F51030BD8B402D0A04BA12B01EE8D
:105020004CF00001A051EE26A151EE22000EEE221E
:10503000ED22ED52ED529F5104D50001AA6F0C0EE6
:10504000AB6F010EAC6FAD6BAE6B12EC37F0050EB3
:10505000E8CF31F30101140E0E6F000E0F6F000147
:10506000AA51D8A402D003013053AAC030F31200D1
:10507000E0EC14F00001280E9D6F010E9E6F8DEC88
:105080001FF0D8A08BD00001220E9D6F010E9E6FE5
:105090008DEC1FF0D8A082D000013E0E9D6F010E56
:1050A0009E6F8DEC1FF0D8A079D000013C0E9D6F53
:1050B000010E9E6F8DEC1FF0D8A070D00101000E84
:1050C0003F5D080ED8B43E5DD8A068D00101050E42
:1050D0003F5DC10ED8B43E5DD8B060D001013C51F7
:1050E0003D11D8B432D03EC1E5F03FC1E6F006EC48
:1050F00021F05CC1E5F05DC1E6F05EC1E7F05FC1A3
:10510000E8F00DEC21F080C1E5F081C1E6F082C14C
:10511000E7F083C1E8F00DEC21F0000EE3EC20F0A5
:10512000110EE3EC20F030C192F031C193F040EC6D
:1051300015F000C09DF001C09EF0C8EC20F092C0B8
:1051400098F093C099F0F3EC14F001013C513D113B
:10515000D8B40AD02CC300F00028D8A41FD02DC387
:1051600000F00028D8A41AD04DEC15F0010122510E
:10517000440A2311D8B406D02251430A2311D8B4CB
:105180000DBE01D03DD901012851350A2911D8B4ED
:105190000DAE02D0F2EC2DF0D88001D0D8901200E4
:1051A000F7EC15F02CC332F32DC333F3F36AF46A32
:1051B0000101000E3B5D1D0ED8B43A5DD8A00AD0A7
:1051C0003AC100F03BC101F0E40E0024F36EFF0E83
:1051D0000120F46E080EF324E8CF3EF1000EF42017
:1051E000E8CF3FF10101140E3E25E8CF1CF1000E7F
:1051F0003F21E8CF1DF10001E56BE66B5EEC15F099
:105200000101A46B080EA56F110EE8CF38F37DECF9
:1052100023F002D82BEF1BF00D9232C32CF333C3D3
:105220002DF322C1E5F023C1E6F01AEC21F028C1EC
:10523000E5F029C1E6F01AEC21F03EC1E5F03FC1EE
:10524000E6F01AEC21F068C1E5F069C1E6F06AC148
:10525000E7F06BC1E8F00DEC21F080C1E5F081C111
:10526000E6F082C1E7F083C1E8F00DEC21F0000E1A
:10527000E3EC20F0110EE3EC20F03EC1E5F03FC17D
:10528000E6F006EC21F02CC3E8FFFF0A44EC16F030
:105290002DC3E8FFFF0A44EF16F003013553D8A4ED
:1052A00036D00101686B696B6A6B6B6B166B176BA1
:1052B0000001120EAB6F010EAC6FAD6BAE6B12EC5A
:1052C00037F00001180EAB6F010EAC6FAD6BAE6B1B
:1052D00012EC37F00101140E146F156B14C110F1AC
:1052E00015C111F1100E10C100F011C101F0026AD8
:1052F000036A41EC64F000C094F101C095F102C072
:1053000096F103C097F1010EE8CF35F339D035C3DC
:1053100000F00004D8B40AD035C3E8FF030AD8B4BB
:1053200005D035C3E8FF130AD8A42AD00001120E15
:10533000AB6F010EAC6F00EEADF014C1EEFF15C106
:10534000EDFF12EC37F0D8A01BD035C300F00004FD
:10535000D8B403D035C3E8FF030A35C3E8FF41DA08
:105360000101040E155DB00ED8B4145DD8B008D09C
:1053700001EE14F014C1E8FFEE2615C1E8FFED229E
:1053800035C3E8FF300AD8B405D035C3E8FF130AA7
:10539000D8A434D00001180EAB6F010EAC6F140E00
:1053A000AD6FAE6B12EC37F0D8A026D00101162BF2
:1053B000000E17232BC1E8FF171903E12AC1E8FFEC
:1053C0001619D8A408D010C114F111C115F1130E8B
:1053D000E8CF35F311D01EC102F01FC103F016C192
:1053E00000F017C101F00350015C02E10250005CC3
:1053F000D8A002D00301356BD88001D0D89012001C
:105400000001946B0D8C0DBE93D0010E55EC20F075
:10541000D8A0E6D1BAEC20F0D8A0E2D1060E55EC27
:1054200020F0D8A0DDD1BAEC20F0D8A0D9D100016D
:105430008C0EA26F010EA36FB2EC1FF0D8A0D0D1DA
:10544000E40E00019D6F9E6BC8EC20F0D8A0C8D17F
:10545000630E55EC20F0D8A0C3D1820E55EC20F09D
:10546000D8A0BED1530E55EC20F0D8A0B9D1630E10
:1054700055EC20F0D8A0B4D12FD000019551350AB9
:10548000D8A40BD096050001D8A408D0940EB46F10
:10549000000EB56F13EC16F01FD0000195513D0AB8
:1054A000D8A414D09651070AD8A410D0010E55ECF8
:1054B00020F00001D8A00BD0550E9A6F030E9B6F01
:1054C000060E9C6F9D6B2CEC20F006D000019651CF
:1054D0009D6F9E6BC8EC20F00001950EB46F000E1E
:1054E000B56F13EC16F0D8A00CD000019529D8B4F4
:1054F00009D0960EB46F000EB56F13EC16F0D8B04D
:10550000BCD700019405D8A407D0020EE8CF35F32C
:1055100035C3E8FF66D964D100019451030AD8A4C9
:105520005FD1050EE8CF35F335C3E8FF5AD958D11E
:10553000020E55EC20F0D8A053D1BAEC20F0D8A040
:105540004FD1060E55EC20F0D8A04AD10D0E000127
:105550009D6F9E6BC8EC20F0D8A042D10001700E68
:10556000A26F010EA36FB2EC1FF0D8A039D1080EC4
:1055700000019D6F9E6BC8EC20F0D8A031D10001D6
:10558000610E986F030E996F060E9A6F98EC20F0DB
:10559000006E00C002F0036A03500210D8B420D19C
:1055A000CA0E00019D6F9E6BC8EC20F0D8A018D1E8
:1055B000630E55EC20F0D8A013D1820E55EC20F0EC
:1055C000D8A00ED1530E55EC20F0D8A009D1630E0F
:1055D00055EC20F0D8A004D16FD000019551350AC8
:1055E000D8A40BD096050001D8A408D0940EB46FAF
:1055F000000EB56F13EC16F05FD000019551330A21
:10560000D8A40CD09651040A0001D8A408D0580E92
:10561000A26F010EA36FB2EC1FF04ED000019505F2
:10562000D8A410D09651040AD8A40CD000019451EB
:10563000050AD8A408D06C0EA26F010EA36FB2ECBD
:105640001FF03AD000019551060AD8A41BD0030ED2
:10565000966518D000019451050AD8A414D0600EA4
:10566000A26F010EA36FB2EC1FF0040E000196654D
:1056700023D0FC0E96259D6F9E6BFF0E9E23C8ECDB
:1056800020F01AD000019551030AD8A40FD0030EC0
:1056900096650CD000019451050AD8A408D0640E78
:1056A000A26F010EA36FB2EC1FF006D0000196515D
:1056B0009D6F9E6BC8EC20F00001950EB46F000E3C
:1056C000B56F13EC16F0000ED8B0010E0001976F05
:1056D0009751D8B40CD09529D8B409D00001960EB2
:1056E000B46F000EB56F13EC16F0D8B076D735C393
:1056F00000F00004D8A429D000019451020AD8A4D3
:1057000024D000014F0EA26F030EA36F9E0EA46F54
:10571000010EA56F060EA66FA76B41EC07F080C1C6
:1057200050F181C151F182C152F183C153F170C175
:1057300054F171C155F172C156F173C157F110C1E5
:1057400014F111C115F1030E49D035C3E8FF030A66
:10575000D8B405D035C3E8FF130AD8A441D000015E
:105760009451050AD8A43CD00101C00E1E6FA80EAA
:105770001F6F01EE5BF0000EED5C08E1000EED5CCA
:1057800005E1A80EED5C02E1C00EEF5CD8B004D0DC
:1057900058C11EF159C11FF10101000E1F5D3C0EE1
:1057A000D8B41E5DD8B003D03C0E1E6F1F6B1EC157
:1057B00000F01FC101F0D8900130E8CF2BF100308C
:1057C000E8CF2AF10101166B176B54C168F155C17E
:1057D00069F156C16AF157C16BF1300EE8CF35F36C
:1057E00012000001986F0101A46B080EA56F110E45
:1057F000E8CF38F30DBE07D0440E286F296B430E57
:10580000226F236B07D00101440E226F236B430EDE
:10581000286F296B4DEC15F01C0E0001E56FE66B4F
:105820005EEC15F00DBE04D0020E44EC16F003D071
:10583000010E44EC16F0010E44EC16F0060E44EC9A
:1058400016F0000E44EC16F00DBE33D08CC1E5F01E
:105850008DC1E6F08EC1E7F08FC1E8F023EC21F0B6
:10586000080E69EC16F0A3C100F07F0E001600C010
:1058700004F0056A066A076A020E04240001E56F57
:10588000000E0520E66FA80E0620E76FC00E072069
:10589000E86F23EC21F0080E69EC16F00001550EBC
:1058A000AF6F030EB06F060EB16FB26B34EC21F028
:1058B00024D094C1E5F095C1E6F096C1E7F097C118
:1058C000E8F023EC21F0040E69EC16F068C1E5F075
:1058D00069C1E6F06AC1E7F06BC1E8F023EC21F0A2
:1058E0000C0E69EC16F00001610EAF6F030EB06F85
:1058F000060EB16FB26B34EC21F00101010E3B5D7D
:10590000080ED8B43A5DD8B004D0000E44EC16F0BE
:10591000F4D7630E44EC16F0820E44EC16F0530EEE
:1059200044EC16F0630E44EC16F0350E44EC16F021
:10593000010E44EC16F0000198510F0B44EC16F0E8
:105940000DBE30D0360E44EC16F0040E44EC16F0CA
:1059500068C1E5F069C1E6F06AC1E7F06BC1E8F043
:1059600023EC21F0330E44EC16F0040E44EC16F058
:10597000000E44EC16F0010E44EC16F0510E44EC0F
:1059800016F0800E44EC16F0010E44EC16F0040EF6
:1059900044EC16F00001E56BE669E769E86923EC81
:1059A00021F063D03D0E44EC16F0070E44EC16F0E7
:1059B000010E44EC16F00001610EAF6F030EB06FE4
:1059C000060EB16FB26B34EC21F00C0E44EC16F005
:1059D000070E44EC16F0500E44EC16F00001996BE3
:1059E0000001995103EE61F0E926000EEA22EF5022
:1059F0000F0B610F44EC16F00001992B050E996511
:105A0000EFD7370E44EC16F0030E44EC16F0010EFF
:105A100044EC16F0030E44EC16F0060E44EC16F0BF
:105A200000019851030AD8A420D0360E44EC16F099
:105A3000040E44EC16F050C1E5F051C1E6F052C13D
:105A4000E7F053C1E8F023EC21F0320E44EC16F0FD
:105A5000040E44EC16F054C1E5F055C1E6F056C111
:105A6000E7F057C1E8F023EC21F0FF0E44EC16F00C
:105A700000019851130AD8A416D09E0EA26F010EF1
:105A8000A36F4F0EA46F030EA56F060EA66FA76B34
:105A900041EC07F050C180F151C181F152C182F156
:105AA00053C183F118D000019E0EAF6F010EB06F8D
:105AB000B169B26B060EB36FB46BFDEC63F000011D
:105AC000800EAF6F010EB06FB169B26B040EB36F91
:105AD000B46BFDEC63F0D0EC28F035C3E8FF050AA9
